{
  "_format": "hh-sol-artifact-1",
  "contractName": "Transactions",
  "sourceName": "contracts/Transactions.sol",
  "abi": [
    {
      "anonymous": false,
      "inputs": [
        {
          "indexed": false,
          "internalType": "address",
          "name": "from",
          "type": "address"
        },
        {
          "indexed": false,
          "internalType": "address",
          "name": "receiver",
          "type": "address"
        },
        {
          "indexed": false,
          "internalType": "uint256",
          "name": "amount",
          "type": "uint256"
        },
        {
          "indexed": false,
          "internalType": "string",
          "name": "message",
          "type": "string"
        },
        {
          "indexed": false,
          "internalType": "uint256",
          "name": "timestamp",
          "type": "uint256"
        },
        {
          "indexed": false,
          "internalType": "string",
          "name": "keyword",
          "type": "string"
        }
      ],
      "name": "Transfer",
      "type": "event"
    },
    {
      "inputs": [
        {
          "internalType": "address",
          "name": "receiver",
          "type": "address"
        },
        {
          "internalType": "uint256",
          "name": "amount",
          "type": "uint256"
        },
        {
          "internalType": "string",
          "name": "message",
          "type": "string"
        },
        {
          "internalType": "string",
          "name": "keyword",
          "type": "string"
        }
      ],
      "name": "addToBlockchain",
      "outputs": [],
      "stateMutability": "nonpayable",
      "type": "function"
    },
    {
      "inputs": [],
      "name": "getAllTransactions",
      "outputs": [
        {
          "components": [
            {
              "internalType": "address",
              "name": "sender",
              "type": "address"
            },
            {
              "internalType": "address",
              "name": "receiver",
              "type": "address"
            },
            {
              "internalType": "uint256",
              "name": "amount",
              "type": "uint256"
            },
            {
              "internalType": "string",
              "name": "message",
              "type": "string"
            },
            {
              "internalType": "uint256",
              "name": "timestamp",
              "type": "uint256"
            },
            {
              "internalType": "string",
              "name": "keyword",
              "type": "string"
            }
          ],
          "internalType": "struct Transactions.TransferStruct[]",
          "name": "",
          "type": "tuple[]"
        }
      ],
      "stateMutability": "view",
      "type": "function"
    },
    {
      "inputs": [],
      "name": "getTransactionCount",
      "outputs": [
        {
          "internalType": "uint256",
          "name": "",
          "type": "uint256"
        }
      ],
      "stateMutability": "view",
      "type": "function"
    }
  ],
  "bytecode": "0x608060405234801561001057600080fd5b50610f0f806100206000396000f3fe608060405234801561001057600080fd5b50600436106100415760003560e01c806327506f53146100465780632e7700f014610064578063cc2d7ead14610082575b600080fd5b61004e61009e565b60405161005b9190610915565b60405180910390f35b61006c6102e1565b6040516100799190610946565b60405180910390f35b61009c60048036038101906100979190610b02565b6102ea565b005b60606001805480602002602001604051908101604052809291908181526020016000905b828210156102d857838290600052602060002090600602016040518060c00160405290816000820160009054906101000a900473ffffffffffffffffffffffffffffffffffffffff1673ffffffffffffffffffffffffffffffffffffffff1673ffffffffffffffffffffffffffffffffffffffff1681526020016001820160009054906101000a900473ffffffffffffffffffffffffffffffffffffffff1673ffffffffffffffffffffffffffffffffffffffff1673ffffffffffffffffffffffffffffffffffffffff168152602001600282015481526020016003820180546101ab90610bd0565b80601f01602080910402602001604051908101604052809291908181526020018280546101d790610bd0565b80156102245780601f106101f957610100808354040283529160200191610224565b820191906000526020600020905b81548152906001019060200180831161020757829003601f168201915b505050505081526020016004820154815260200160058201805461024790610bd0565b80601f016020809104026020016040519081016040528092919081815260200182805461027390610bd0565b80156102c05780601f10610295576101008083540402835291602001916102c0565b820191906000526020600020905b8154815290600101906020018083116102a357829003601f168201915b505050505081525050815260200190600101906100c2565b50505050905090565b60008054905090565b823373ffffffffffffffffffffffffffffffffffffffff16311015610344576040517f08c379a000000000000000000000000000000000000000000000000000000000815260040161033b90610c5f565b60405180910390fd5b60008311610387576040517f08c379a000000000000000000000000000000000000000000000000000000000815260040161037e90610ccb565b60405180910390fd5b600073ffffffffffffffffffffffffffffffffffffffff168473ffffffffffffffffffffffffffffffffffffffff1614156103f7576040517f08c379a00000000000000000000000000000000000000000000000000000000081526004016103ee90610d37565b60405180910390fd5b60008473ffffffffffffffffffffffffffffffffffffffff168460405161041d90610d88565b60006040518083038185875af1925050503d806000811461045a576040519150601f19603f3d011682016040523d82523d6000602084013e61045f565b606091505b50509050801561062657600160008082825461047b9190610dcc565b9250508190555060016040518060c001604052803373ffffffffffffffffffffffffffffffffffffffff1681526020018773ffffffffffffffffffffffffffffffffffffffff16815260200186815260200185815260200142815260200184815250908060018154018082558091505060019003906000526020600020906006020160009091909190915060008201518160000160006101000a81548173ffffffffffffffffffffffffffffffffffffffff021916908373ffffffffffffffffffffffffffffffffffffffff16021790555060208201518160010160006101000a81548173ffffffffffffffffffffffffffffffffffffffff021916908373ffffffffffffffffffffffffffffffffffffffff1602179055506040820151816002015560608201518160030190805190602001906105ba92919061062d565b506080820151816004015560a08201518160050190805190602001906105e192919061062d565b5050507f416cfa4330a4565f45c2fd2dd4826a83a37443aba2ce6f79477c7355afac35fa33868686428760405161061d96959493929190610e6a565b60405180910390a15b5050505050565b82805461063990610bd0565b90600052602060002090601f01602090048101928261065b57600085556106a2565b82601f1061067457805160ff19168380011785556106a2565b828001600101855582156106a2579182015b828111156106a1578251825591602001919060010190610686565b5b5090506106af91906106b3565b5090565b5b808211156106cc5760008160009055506001016106b4565b5090565b600081519050919050565b600082825260208201905092915050565b6000819050602082019050919050565b600073ffffffffffffffffffffffffffffffffffffffff82169050919050565b6000610727826106fc565b9050919050565b6107378161071c565b82525050565b6000819050919050565b6107508161073d565b82525050565b600081519050919050565b600082825260208201905092915050565b60005b83811015610790578082015181840152602081019050610775565b8381111561079f576000848401525b50505050565b6000601f19601f8301169050919050565b60006107c182610756565b6107cb8185610761565b93506107db818560208601610772565b6107e4816107a5565b840191505092915050565b600060c083016000830151610807600086018261072e565b50602083015161081a602086018261072e565b50604083015161082d6040860182610747565b506060830151848203606086015261084582826107b6565b915050608083015161085a6080860182610747565b5060a083015184820360a086015261087282826107b6565b9150508091505092915050565b600061088b83836107ef565b905092915050565b6000602082019050919050565b60006108ab826106d0565b6108b581856106db565b9350836020820285016108c7856106ec565b8060005b8581101561090357848403895281516108e4858261087f565b94506108ef83610893565b925060208a019950506001810190506108cb565b50829750879550505050505092915050565b6000602082019050818103600083015261092f81846108a0565b905092915050565b6109408161073d565b82525050565b600060208201905061095b6000830184610937565b92915050565b6000604051905090565b600080fd5b600080fd5b61097e8161071c565b811461098957600080fd5b50565b60008135905061099b81610975565b92915050565b6109aa8161073d565b81146109b557600080fd5b50565b6000813590506109c7816109a1565b92915050565b600080fd5b600080fd5b7f4e487b7100000000000000000000000000000000000000000000000000000000600052604160045260246000fd5b610a0f826107a5565b810181811067ffffffffffffffff82111715610a2e57610a2d6109d7565b5b80604052505050565b6000610a41610961565b9050610a4d8282610a06565b919050565b600067ffffffffffffffff821115610a6d57610a6c6109d7565b5b610a76826107a5565b9050602081019050919050565b82818337600083830152505050565b6000610aa5610aa084610a52565b610a37565b905082815260208101848484011115610ac157610ac06109d2565b5b610acc848285610a83565b509392505050565b600082601f830112610ae957610ae86109cd565b5b8135610af9848260208601610a92565b91505092915050565b60008060008060808587031215610b1c57610b1b61096b565b5b6000610b2a8782880161098c565b9450506020610b3b878288016109b8565b935050604085013567ffffffffffffffff811115610b5c57610b5b610970565b5b610b6887828801610ad4565b925050606085013567ffffffffffffffff811115610b8957610b88610970565b5b610b9587828801610ad4565b91505092959194509250565b7f4e487b7100000000000000000000000000000000000000000000000000000000600052602260045260246000fd5b60006002820490506001821680610be857607f821691505b60208210811415610bfc57610bfb610ba1565b5b50919050565b600082825260208201905092915050565b7f496e73756666696369656e742062616c616e6365000000000000000000000000600082015250565b6000610c49601483610c02565b9150610c5482610c13565b602082019050919050565b60006020820190508181036000830152610c7881610c3c565b9050919050565b7f416d6f756e74206d7573742062652067726561746572207468616e207a65726f600082015250565b6000610cb5602083610c02565b9150610cc082610c7f565b602082019050919050565b60006020820190508181036000830152610ce481610ca8565b9050919050565b7f496e76616c696420726563697069656e74206164647265737300000000000000600082015250565b6000610d21601983610c02565b9150610d2c82610ceb565b602082019050919050565b60006020820190508181036000830152610d5081610d14565b9050919050565b600081905092915050565b50565b6000610d72600083610d57565b9150610d7d82610d62565b600082019050919050565b6000610d9382610d65565b9150819050919050565b7f4e487b7100000000000000000000000000000000000000000000000000000000600052601160045260246000fd5b6000610dd78261073d565b9150610de28361073d565b9250827fffffffffffffffffffffffffffffffffffffffffffffffffffffffffffffffff03821115610e1757610e16610d9d565b5b828201905092915050565b610e2b8161071c565b82525050565b6000610e3c82610756565b610e468185610c02565b9350610e56818560208601610772565b610e5f816107a5565b840191505092915050565b600060c082019050610e7f6000830189610e22565b610e8c6020830188610e22565b610e996040830187610937565b8181036060830152610eab8186610e31565b9050610eba6080830185610937565b81810360a0830152610ecc8184610e31565b905097965050505050505056fea2646970667358221220a8bce7f347e6c9152fc8e53c97bc8919b2cd108b5583522a622c13454707268a64736f6c63430008090033",
  "linkReferences": {},
  "deployedLinkReferences": {}
}